:020000040800F2
:100000009006002065010008410F0008210E00083D
:1000100000000000000000000000000000000000E0
:10002000000000000000000000000000450F000874
:100030000000000000000000430F0008AD0F0008A2
:1000400077010008770100087701000877010008B0
:1000500077010008770100087701000877010008A0
:100060000000000077010008770100087701000810
:100070007701000877010008000000007701000800
:1000800000000000770100080000000000000000F0
:1000900077010008000000007701000877010008E0
:1000A0007701000877010008770100087701000850
:1000B0007701000877010008000000000000000040
:1000C00000F002F800F03EF80CA030C80838241800
:1000D0002D18A246671EAB4654465D46AC4201D180
:1000E00000F030F87E460F3E0FCCB6460126334274
:1000F00000D0FB1AA246AB4633431847C810000095
:10010000E8100000103A02D378C878C1FAD8520734
:1001100001D330C830C101D504680C6070470000BD
:100120000023002400250026103A01D378C1FBD813
:10013000520700D330C100D50B6070471FB51FBDFB
:1001400010B510BD00F0BFF91146FFF7F7FF00F042
:10015000A7FF00F0D7F903B4FFF7F2FF03BC00F0EC
:10016000DDF900000748804707480047FEE7FEE743
:10017000FEE7FEE7FEE7FEE704480549054A064BB1
:100180007047000029100008C100000890000020FE
:10019000900600209002002090020020FEB5054647
:1001A00010460C46184373D0AE468C460020AD1A5C
:1001B00001469C4167D36646002701243D46B61A96
:1001C0009D4102D313463A462124654676462F04C4
:1001D000360C3E432D0CB61A9D4104D3150C1B045E
:1001E0002B4312041034654676462F06360A3E43EA
:1001F0002D0AB61A9D4104D3150E1B022B43120281
:100200000834654676462F0736093E432D09B61A4F
:100210009D4104D3150F1B012B431201241D65467C
:100220007646AF07B6083E43AD08B61A9D4104D3E3
:10023000950F9B002B439200A41C65467646EF0762
:1002400076083E436D08B61A9D411AD392185B4159
:10025000641C16E00018764665464941B71A9D4170
:100260000191009009D36046B11A98418E468446A8
:10027000009801990025401C6941DD0752082A4376
:100280005B08641EE6D57246634603B0F0BDFFE727
:1002900000200146C046C0462A462346F5E7000036
:1002A0000FB41CB5074B06AA7B446946009005981D
:1002B00000F0DFF80020694600F0EEF81CBC08BC36
:1002C00004B01847ED01000001E004C0091F042933
:1002D000FBD28B0701D50280801CC90700D00270B9
:1002E000704700290BD0C30702D00270401C491E82
:1002F000022904D3830702D50280801C891EE3E70C
:100300000022EEE70022DFE7002203098B422CD314
:10031000030A8B4211D300239C464EE003460B4355
:100320003CD4002243088B4231D303098B421CD3B7
:10033000030A8B4201D394463FE0C3098B4201D3A9
:10034000CB01C01A524183098B4201D38B01C01AE1
:10035000524143098B4201D34B01C01A5241030958
:100360008B4201D30B01C01A5241C3088B4201D307
:10037000CB00C01A524183088B4201D38B00C01AB4
:10038000524143088B4201D34B00C01A5241411ADB
:1003900000D201465241104670475DE0CA0F00D0BE
:1003A0004942031000D34042534000229C460309B7
:1003B0008B422DD3030A8B4212D3FC22890112BA3D
:1003C000030A8B420CD3890192118B4208D3890115
:1003D00092118B4204D389013AD0921100E089092D
:1003E000C3098B4201D3CB01C01A524183098B420E
:1003F00001D38B01C01A524143098B4201D34B01F7
:10040000C01A524103098B4201D30B01C01A524159
:10041000C3088B4201D3CB00C01A524183088B42E0
:1004200001D38B00C01A5241D9D243088B4201D369
:100430004B00C01A5241411A00D201466346524154
:100440005B10104601D34042002B00D54942704753
:1004500063465B1000D3404201B50020C046C04651
:1004600002BD70477047704701694A1C02610878F5
:10047000704700B58FB002910021059105490193A5
:100480007944039111460490684600F00AF80FB0D1
:1004900000BD0000E5FFFFFF0A681070521C0A60F3
:1004A0007047F8B5064600244768806800903046DB
:1004B000F56803E00099B847641C3046A847002857
:1004C000F8D12046F8BD754600F024F8AE46050088
:1004D00069465346C008C000854618B020B5FFF7EE
:1004E0004BFE60BC00274908B6460026C0C5C0C503
:1004F000C0C5C0C5C0C5C0C5C0C5C0C5403D490018
:100500008D46704710B50446C046C0462046FFF7EA
:1005100022FE10BD0048704730000020014918201D
:10052000ABBEFEE7260002007047000070B504462F
:1005300000F0ECF80546601C02D00448007824184E
:1005400000F0E4F8401BA042FAD370BD0000002088
:10055000F8B5002303240125BDE032462E469E4017
:10056000B446324079D00E79B607B60F012E01D0CD
:10057000022E17D186682746B6465E00B740009621
:100580007646BE43B646CF68009EB74076463743B0
:10059000876046686746BE430F79FF06FF0F9F409E
:1005A000374347600E79F643B6070ED0C668274634
:1005B000B4465E00B646B7406646BE43B4468F6852
:1005C0007646B74066463743C7600E79B607B60F22
:1005D000022E14D1DE08B60036180096366A5F0780
:1005E000B446FE0E0F27B646B7406646BE43B44635
:1005F0000F697646B74066463743009E3762066805
:100600002746B4465E00B646B7406646BE430F79FD
:10061000B446BF07BF0F7646B7406646374307600C
:100620004E68B603B60F55D02E4F7E6B2E437E63B9
:100630009F082D4EBF00BE190096B6680F27B4461E
:100640009E07360FB646B7406646BE4305273F07AE
:10065000B446B84202D1002715E03BE0234FB84230
:1006600001D101270FE0224FB84201D102270AE051
:10067000204FB84201D1032705E01F4FB84201D1F6
:10068000052700E006277646B74066463743009EBA
:10069000B7601A4E36684F689643FF0300D516437D
:1006A000164F3E607E684F689643BF0300D51643E1
:1006B000124F7E60BE684F689643FF0200D5164316
:1006C0000E4FBE60FE684F689643BF0200D51643CA
:1006D0000A4AD6605B1C0A681646DA4000D03CE73E
:1006E000F8BD00000010024000000140000400506E
:1006F00000080050000C0050001C00500004014095
:10070000002A01D08161704781627047014880688A
:1007100070470000000000200248816802788918B4
:10072000816070470000002010B50848002401686F
:10073000402211430160032000F00AF8002801D094
:10074000012401E000F026F8204610BD0020024000
:1007500070B504460D4D7D202978C000FFF7D4FD0B
:1007600001460B480068FFF7CFFD00F041FB002871
:1007700009D1042C07D200222146401E00F016F8B1
:1007800000206C6070BD012070BD000000000020E2
:100790000C0000200448416B012211434163816B2E
:1007A00002041143816370470010024010B500F04D
:1007B00055FC10BDF8B50E46050038D05E480068FF
:1007C000C007C00FB04214D25B4C20684008400004
:1007D00030432060FFF79AFF074605E0FFF796FFDA
:1007E000C11B564881427AD82068C007C00FB0426A
:1007F000F4D12878524C800705D5E068F021884371
:10080000A9680843E0602878C00752D068680228C9
:1008100006D0032807D0216801280AD0890504E002
:100820002168890301E021688901002903DB012097
:10083000F8BD4907F9E7E168890889000143E160EB
:10084000FFF764FF0746686802280AD0032814D01F
:1008500001281ED029E0FFF759FFC11B374881420C
:100860003DD8E0680007800F0228F4D121E0FFF7AF
:100870004DFFC11B3148814231D8E0680007800F2D
:100880000328F4D115E0FFF741FFC11B2B4881423B
:1008900025D8E0680007800F0128F4D109E0FFF7B0
:1008A00035FFC11B2548814219D8E0680007800F39
:1008B000F5D121480168C907C90FB14217D90168AC
:1008C0004908490031430160FFF720FF074608E06F
:1008D00005E0FFF71BFFC11B1848814201D9032027
:1008E000F8BD15480068C007C00FB042F1D12878A4
:1008F000400706D5E068072109028843E9680843F4
:10090000E0602878000707D5E0680721C90288431E
:100910002969C9000843E06000F01AF8E168094A53
:100920000906090F515CC84007490860074800687C
:10093000FFF70EFFF8BD0000002002408813000002
:1009400000100240A81100080C0000200400002044
:1009500070B51A4AD3681A490C2018408D00042833
:100960000CD04E00082810D00C2810D0506800047D
:10097000410F0120C003491C884070BD1068C006AB
:1009800001D5084670BD284670BD304670BD98023E
:100990000C4C000F205C1B029C0FD368641CDB0313
:1009A00001D5314603E01268D20600D4294600F092
:1009B0003CFB22460023FFF7F1FB70BD0010024014
:1009C00000093D00B8110008FEB505007ED0FE4CC0
:1009D000E7680C20E66807400120000406402878FC
:1009E000C00747D0082F05D00C2F0AD101200004E2
:1009F000864206D1206880033CD568680028E5D08F
:100A000038E0012069680004814203D12168014374
:100A1000216011E0052301221B0492049942216800
:100A200002D111432160F1E7814321602168014037
:100A30000091206890432060686800280DD0FFF77F
:100A400065FE009005E0FFF761FE0099401A6428FA
:100A50007BD820688003F6D50CE0FFF757FE0090A6
:100A600005E0FFF753FE0099401A6428F0D820688B
:100A70008003F6D42878800756D50923E868042F28
:100A80000DD00C2F01D1002E09D000283CD02168B8
:100A9000994301432160FFF739FE064628E02168AB
:100AA000490701D5002891D061681F2212029143A5
:100AB0002A69120211436160216899430143216050
:100AC000FFF746FFE16809060A0F00E08BE1BF4926
:100AD000895CC840BE490860BE480068FFF738FE20
:100AE000002873D120E0FFF711FE801B0228AFD849
:100AF00020684007F7D560681F21090288432969EB
:100B00000902084360600FE0206840084000206050
:100B1000FFF7FCFD064604E0FFF7F8FD801B022806
:100B200096D820684007F7D42878C00660D5002FF3
:100B30000CD0A86900284AD02068FF210131084361
:100B40002060FFF7E3FD06462EE0C1E02068800547
:100B500002D5A8690028A6D0606807214903884308
:100B6000296A084360606068297F0002000A09065C
:100B700008436060286A410B0120C003491C88407B
:100B8000E16809060A0F9149895CC84090490860EC
:100B900090480068FFF7DCFD002817D128E0FFF738
:100BA000B5FD801B0228A2D820688005F7D56068B3
:100BB000072149038843296A084360606068297FE8
:100BC0000002000A09060843606011E0E2E02168C3
:100BD000FF20013081432160FFF798FD064604E0C5
:100BE000FFF794FD801B022872D820688005F7D497
:100BF0002878794E000724D568690028306910D01C
:100C0000012108433061FFF781FD009005E0FFF707
:100C10007DFD0099401A02285AD830698007F6D520
:100C20000FE0400840003061FFF770FD009005E0E4
:100C3000FFF76CFD0099401A022849D830698007F7
:100C4000F6D42878400766D500200290A06BC0003B
:100C500006D4A06B012109070843A063012002907C
:100C60005E480168C90511D401688215114301600D
:100C7000FFF74CFD009005E0FFF748FD0099401A92
:100C8000642825D855480068C005F5D5FF20AA6816
:100C90000130824203D131690143316111E0012108
:100CA0008902002A07D005231B029A4203D1326928
:100CB0000A433261EFE73269824332613069884327
:100CC0003061A868002810D0FFF720FD009008E0F0
:100CD0005FE0FFF71BFD01460098091A404881427A
:100CE00057D830698005F4D50DE0FFF70FFD00906F
:100CF00006E0FFF70BFD0099411A3948814248D8B8
:100D000030698005F5D40298002804D0A06B012139
:100D100009078843A063686A002866D00C2F3ED07C
:100D2000012636060228206805D0B0432060FFF770
:100D3000EDFC05462FE0B0432060FFF7E7FC0746D7
:100D400004E0FFF7E3FCC01B022822D820688001E2
:100D5000F7D4E96AA86AE2680843296BFD231B04FB
:100D60009A4311430843E060206830432060FFF756
:100D7000CDFC054604E0FFF7C9FC401B022808D85B
:100D800020688001F7D530E0FFF7C0FC401B022847
:100D900001D90320FEBD20688001F5D425E001289B
:100DA000F8D0E06801210904AA6A014091421AD1F1
:100DB0000F218904EA6A0140914214D10321890577
:100DC0000840296B88420DE000100240A81100087D
:100DD0000C00002004000020401002400070004081
:100DE0008813000001D00120FEBD0020FEBD0000E0
:100DF000094910B5401E884201D9012010BD074C99
:100E000060610321081F00F029F90020A06107207C
:100E10002061002010BD0000FFFFFF0000E000E0A7
:100E2000FEE770B50524054601212407002249028A
:100E30002046FFF765FCFF21002201312046FFF725
:100E40005FFC284600F0A6F80120FFF76FFB70BD9D
:100E500070B50524054601212407002249022046D9
:100E6000FFF74EFC012211022046FFF749FC2846FD
:100E700000F090F80120FFF759FB70BDF8B57D2117
:100E80000546C900FFF74AFA0C460646204664218B
:100E9000FFF744FA08460A21FFF740FA009120467E
:100EA0006421FFF73BFA08460A21FFF737FA0746A5
:100EB00020466421FFF732FA7D21C90004468D42A5
:100EC00004DB30463030C0B2FFF7C2FF642D03DBD5
:100ED0003034E0B2FFF7BCFF0A2D03DB3037F8B245
:100EE000FFF7B6FF002D04DB00983030C0B2FFF7EB
:100EF000AFFFF8BD10B5044602E0FFF7A9FF641C80
:100F000020780028F9D110BD10B5401E012907D066
:100F1000022904D1C0210843C0B2FFF782FF10BDEF
:100F20008021F8E710B52820FFF77BFF0C20FFF7A2
:100F300078FF0220FFF775FF0120FFF772FF10BD59
:100F4000FEE77047704770B50122052604469502FA
:100F5000360729463046FFF7D3FBE006C20F1021C3
:100F60003046FFF7CDFBA006C20F20213046FFF729
:100F7000C7FB6006C20F40213046FFF7C1FBE20904
:100F800080213046FFF7BCFB002229463046FFF7A0
:100F9000B7FB70BD10B50446FFF7D5FF2007000E64
:100FA000FFF7D1FF0120FFF7C1FA10BD10B5FFF721
:100FB000B3FB10BD10B592B034216846FFF7A2F91B
:100FC00014210DA8FFF79EF9164801680322D202EA
:100FD0009143C2148918016001210220039110215C
:100FE00000900491099040040B90000100240C90A3
:100FF0000A946846FFF7E8FC002801D072B6FEE7C5
:101000000F200D9003200E900F9410940121119445
:101010000DA8FFF7CFFB002801D072B6FEE712B093
:1010200010BD0000007000407047F8B5040C8BB292
:10103000264682B25E430D0C1046370C58433604E8
:1010400080190021794116466E43370C3604801909
:10105000794126466E438919F8BD00008307FF22B7
:10106000DB0E9A408907090E9940002808DB8308A7
:1010700009489B001B181868904308431860704784
:101080000007000F0838830804489B001B18D86924
:1010900090430843D861704700E400E000ED00E0B1
:1010A00086B0FFF741FBFFF785FF14216846FFF785
:1010B00029F92F48C16A01242143C162C06A2D4D1C
:1010C0002040052636070590002229463046FFF7C6
:1010D00017FB002102910391009501946946304667
:1010E000FFF736FAFFF71EFFFFF71CFFFFF71AFFA7
:1010F0007D26F60075100120FFF793FE01210320E5
:10110000FFF702FF1CA11F48FFF7CAF81D48FFF7B1
:10111000F1FE34463046FFF709FA0120FFF781FE61
:1011200002210846FFF7F0FE17A11648FFF7B8F8AE
:101130001448FFF7DFFE2046FFF7F8F90120FFF71C
:1011400070FE01210220FFF7DFFE13A0FFF7D2FEA1
:10115000002402210720FFF7D7FE2046FFF78EFE6E
:101160002846FFF7E3F9641C642CF2DDC3E70000B6
:1011700000100240FF07000053746D33324C3035CD
:10118000316B3600100000204C4344203136783259
:101190002044656D6F00000044656D20736F20640E
:1011A000656E2031303000000000000000000000BB
:1011B0000102030406070809030406080C1018209E
:1011C00030000000E41100080000002010000000C2
:1011D00004010008F411000810000020800600003F
:1011E00020010008010000000400000000000000D1
:0411F00000002000DB
:04000005080000C12E
:00000001FF
